:1078000011E0A0E0B1E0E6EFFFE702C005900D92C5
:10781000A630B107D9F721E0A6E0B1E001C01D9282
:10782000AE34B207E1F7CDB7DEB76197DEBFCDBFAB
:10783000112484B78093270114BE88E248D3809135
:10784000270181FF96C082E08093C00088E1809389
:10785000C10086E08093C20080E18093C400E12CE7
:10786000F12C00E010E0CC24CA94DC2CAA24A394D0
:10787000A8953AD3813471F437D3898B41D3898960
:10788000823811F482E054C0813811F485E650C08A
:1078900083E04EC0823411F484E103C0853419F4CE
:1078A00085E031D363C0853541F41ED3082F1CD346
:1078B00010E0182B000F111F58C0863521F484E00A
:1078C00022D380E035C08436E1F40ED30DD3882E68
:1078D0000BD3E82CF12C912C981480F405D3B82EFE
:1078E00003D3F801E90DF11D2B2D30E0382B0901F0
:1078F000A7BEE895112493949394EECFC801BCD110
:1079000034C0843769F4F0D2EFD2B82EEDD2F8D279
:10791000F80185918F01E1D2BA94B110F9CF26C058
:10792000853741F4EDD28EE1D8D285E9D6D28FE009
:10793000D4D21CC08135C9F4DA82C982DC82CB8200
:10794000C70154E0969587955A95E1F79E838D83FC
:10795000C701A4D198878F8348E050E06BE171E0C4
:10796000CE01019627D388E0B2D2CAD280E1B5D247
:107970007FCF8EE284B981E58CBD29982A9A63E095
:1079800083E2D2D16FE584E2CFD16CE485E2CCD141
:1079900067E286E2C9D163E780E5C6D166E08DE3A0
:1079A000C3D161E082E2C0D161E081E2BDD161E09A
:1079B0008CE3BAD181E0812C912C5524539411E0B1
:1079C000CC24CA94DC2CAA24A39442E0B42E8130A7
:1079D000F1F7F999FECF43E050E060E070E089E212
:1079E00091E0D8D2809129018093050180912A01EC
:1079F0008093280110924D018FEF80932A0180938C
:107A00002B0103E222E047E06FEF84D261E08EEFCA
:107A1000A8D180912A018F3F49F38091290181509B
:107A20008E3F08F467C003E022E043E06FEF80E0A0
:107A300071D263E084E095D1882359F283E391E029
:107A400077D2682FBDC046E050E063E371E08DE07F
:107A500091E08BD2892B79F5C3018150904F082F8B
:107A60000295007740E050E0602F70E0DA01A45DFD
:107A7000BE4FFA01E60FF71F1E962C911E9730E0BD
:107A8000322F22271D96AC912A2B090157BEE8956B
:107A900011244E5F5F4F4031510541F7011106C07F
:107AA00044E0880F991F4A95E1F7E6D0E114F1040C
:107AB00009F4B6C0370189859A8590930E018093A9
:107AC0000D018B859C859093100180930F017301AC
:107AD000F1E0EF1AF108F0921201E092110104ECCA
:107AE00022E342E06FEF80E015D268E083E039D115
:107AF0008111A9CF10930D0110920E0103EC22E128
:107B00004FE06FEF80E006D261E08FE02AD148E0DD
:107B100050E06BE171E0CE0101963CD28D819E81F7
:107B200024E0880F991F2A95E1F7B8D098878F83B2
:107B300088E0FE013196ADE0B1E001900D928A95AA
:107B4000E1F7B0921601A092150104EC22E540E0A5
:107B50006FEF80E0DFD163E081E003D1882309F497
:107B600078C088E0E3E3F1E0DE01199601900D9220
:107B70008A95E1F7E0903701F0903801E114F104C3
:107B800059F58091390190913A018A379A4D09F05F
:107B900020CF80913301813079F4E12CF12C6FEF0B
:107BA000C70117D2F999FECF2FEFE21AF20AE114BA
:107BB00084E0F806A1F70DCF823029F460913501F9
:107BC00080E090E007C0833009F003CF6091350179
:107BD00081E090E0FED1FDCE48E050E0BE01675F5D
:107BE0007F4FCE010196C1D1892B99F1E0E8EE16C5
:107BF000E7E0FE0670F588E0FE013996DE01119699
:107C000001900D928A95E1F7D886CF8248E050E046
:107C10006BE171E0CE010196CDD16D847E844BCFB6
:107C20008D859E8534E0880F991F3A95E1F736D00F
:107C30002F8538898217930721F01E861D86188AA2
:107C40001F8648E050E06BE171E0CE010996B2D1A9
:107C5000C0CE8D819E8124E0880F991F2A95E1F77F
:107C60001DD02F8138858217930709F0B2CE1CBC36
:107C7000A895F4010995ADCE23E0FC0127BFE89556
:107C800007B600FCFDCF25E0FC0127BFE89507B64D
:107C900000FCFDCF81E187BFE8950895AC01E0E0ED
:107CA000F0E08FEF9FEF41155105B1F0259182274C
:107CB00068E0DC01B695A7959C01217033273195CA
:107CC000219531092170307AC9018A279B2761509B
:107CD00081F741505109E7CF08952A988EBD0DB420
:107CE00007FEFDCF8EB59FEF4150D0F0222369F003
:107CF0009EBD0DB407FEFDCF8EB561157105A1F3D4
:107D0000DB018C936F5F7F4FEFCFFB013196DB017F
:107D10008C918EBD0DB407FEFDCF8EB5BF01E4CFB3
:107D20002A9A089520E0D9CFCF93DF931F92CDB741
:107D3000DEB7698320E041E0BE016F5F7F4FCDDF9A
:107D40000F90DF91CF91089540E060E070E082EE07
:107D5000E9DF40E060E070E081EEE4DF60E787E2C9
:107D6000E3CFEF92FF920F931F93CF93DF93F82E01
:107D7000D62F80E0EE24EA94DD2309F4A1C081111E
:107D80009EC0A895C0910901C695C695C695C95FC4
:107D900010912A0129986EE080E2C6DFD5DF1093AA
:107DA000000145E060E071E08AE2BCDF45E060E0B0
:107DB00071E080E3B7DF4C2F66E071E080EAB2DF6C
:107DC000299A2A98EEBC0DB407FEFDCF8EB52A9AEB
:107DD000982F9073B1F3299884FF05C040E060E0CC
:107DE00070E081EE9FDF6FE080E29EDF6091050131
:107DF0008AE29ADFA9DF299A0FEF1FEFA89521E009
:107E000041E060E070E087E168DF80FF02C04FEF93
:107E100044C021E041E060E070E080E65EDF813256
:107E200030F040E060E070E082EE7CDF80E021E056
:107E3000482F6CE271E081E650DF86DF90912E01E1
:107E4000809129019813E3CF409131018091300155
:107E50008770833011F5483001F5509128018091E9
:107E60002D01581303C091E090934D01909133017F
:107E7000692F70E020912B0130E021503109621709
:107E8000730724F420914D01222311F0581305C0EB
:107E90009F5F90932B0180932A0191E04F1190E016
:107EA00085EA8A95F1F700000150110911F4892F34
:107EB00004C0992309F4A2CF81E0D1505DCF81E0C5
:107EC000DF91CF911F910F91FF90EF900895E0E621
:107ED000F0E098E19083808308959091C00095FF31
:107EE000FCCF8093C60008958091C00087FFFCCF2F
:107EF0008091C00084FD01C0A8958091C6000895BE
:107F0000F3DF84E1EACFCF93C82FEEDFC150E9F76A
:107F1000CF91F6CF0F9390912901E6E0F1E09183A4
:107F20009083828366834583048323830F9108951E
:107F3000FC0188279927E89421912032E9F3293020
:107F400010F02E30C8F32B3239F02D3231F4689412
:107F500003C018D0820F911D219120532A30C8F3FD
:107F60001EF4909581959F4F0895FB01DC0104C09C
:107F70008D910190801921F441505040C8F7881B21
:107F8000990B08957AE0979F902D879F802D910DF2
:107F900011240895DC01CB01FC01F999FECF06C044
:107FA000F2BDE1BDF89A319600B40D9241505040B7
:107FB000B8F70895DC01A40FB51F4150504040F0C0
:107FC000CB01840F951F2E9105D041505040D8F71A
:107FD0000895262FF999FECF92BD81BDF89A019799
:107FE00000B4021639F01FBA20BD0FB6F894FA9A01
:067FF000F99A0FBE08958E
:067FF600FFFCE1A8A8FF5A
:040000030000780081
:00000001FF
